:020000040000FA
:020000000B28CB
:10000800DE00030E8312A6000A08A700D6280C28D3
:100018008312A001A101A201A301A401A5018301EA
:100028003F290D308312AB00FB30AA00AA0B1A2817
:10003800AB0B1A281F2883129F140C1F242825286D
:1000480021280D30AB00FB30AA00AA0B2928AB0BE6
:1000580029282E2883121E08A30083161E0883123F
:10006800A2002308803ADF0080305F02031D3E288B
:10007800B430220203184128422848280A30831243
:10008800A4000030A500D02883122308803ADF009E
:1000980080305F02031D5228B4302202031C552809
:1000A80056286A2883122308803ADF0081305F02CD
:1000B800031D6028CC3022020318632864286A28AC
:1000C80019308312A4000030A500D0288312230819
:1000D800803ADF0081305F02031D7428CC30220291
:1000E800031C772878288C2883122308803ADF009D
:1000F80082305F02031D8228663022020318852899
:1001080086288C2832308312A4000030A500D0281D
:1001180083122308803ADF0082305F02031D96288D
:1001280066302202031C99289A28AE2883122308D5
:10013800803ADF0082305F02031DA428E1302202EA
:100148000318A728A828AE284B308312A400003033
:10015800A500D02883122308803ADF0082305F028E
:10016800031DB828E1302202031CBB28BC28D02874
:1001780083122308803ADF0083305F02031DC628FC
:10018800FF3022020318C928CA28D0285F308312FA
:10019800A4000030A500D02883122508A90024084F
:1001A800A8000800C83081000130A0070318A10A80
:1001B8000030A1070B1DE128E228F02825082102BC
:1001C800031DE828240820020318EB28EC28EE2851
:1001D8000516EF2805120B110030210265300319AE
:1001E8002002031CF828F928FB28A001A1012708F0
:1001F8008A00260E8300DE0E5E0E09000730831289
:100208009900831699018501831285018316851249
:100218008312851683160512831205121F149F1761
:100228001F13831605148514831285103130831625
:100238009F0083129F111F118B1708008312851CC2
:10024800262927292F298512152083122908A50078
:100258002808A40036298518322933293629851615
:10026800A401A5010800C0308312A800280883163D
:1002780081058B160800372102218B17222142297C
:020288000B2841
:02400E00F4318B
:00000001FF
