:020000040000FA
:020000000B28CB
:10000800DE00030E8312A1000A08A20098280C281B
:100018008312A901AA01AB01AC018301962913211E
:10002800003083122A02C8300319290203181D2838
:100038001E282D288516AC01132159210030831262
:100048002A02C83003192902031C2B282C2820282F
:10005800972800302A02C83003192902031C3528C2
:100068003628412803302A02703003192902031860
:100078003E283F284128AC01972803302A027030D7
:1000880003192902031C49284A28582803302A0240
:100098008E300319290203185228532858281E3075
:1000A800A8002808AC00972803302A028E300319CC
:1000B8002902031C602861286F2803302A02AC300B
:1000C80003192902031869286A286F282D30A80007
:1000D8002808AC00972803302A02AC3003192902FB
:1000E800031C77287828862803302A02CA30031987
:1000F800290203188028812886283730A800280874
:10010800AC00972885165530A8002808AC001321A4
:100118005921033083122A02CA300319290203180D
:10012800962897288B280800C83081000130A00045
:100138002008AB070B1DA128A228AC282C082B02ED
:100148000318A728A828AA280516AB2805120B11FA
:1001580065302B02031CB128B228B328AB01220852
:100168008A00210E8300DE0E5E0E0900073083121E
:10017800990083169901850183128501831605115B
:10018800831205118316851283128516AC01A90105
:10019800AA0183160512831205121F141F1783164E
:1001A8000514851433309F008B1743210800F7206E
:1001B800003083122A02BF30031929020318E528E8
:1001C800E628E92885167D21F62801302A0216300E
:1001D80003192902031CF128F228F52885166B213A
:1001E800F6288512080083129F019F179F111F157B
:1001F8001F149F140C1F01290229FE280D30A4008A
:10020800FB30A300A30B0629A40B06290B29831294
:100218001E08AA0083161E088312A900080083126C
:100228009F019F171F149F140C1F1B291C29182995
:100238000D30A400FB30A300A30B2029A40B202918
:10024800252983121E08AA0083161E088312A900F6
:100258000800831205154E30A400EB30A300A30B51
:100268003329A40B3329831205116830A400E43024
:10027800A300A30B3D29A40B3D290000080083120D
:100288000515C330A400CD30A300A30B4929A40B46
:100298004929831205116830A400E430A300A30B98
:1002A8005329A40B5329000008004321432143216B
:1002B8002D2102308312A7008630A6009930A500B0
:1002C800A50B6429A60B6429A70B642908002D2116
:1002D8002D214321432102308312A7008630A60036
:1002E8009930A500A50B7629A60B7629A70B7629A8
:1002F80008002D212D21432102308312A7008630CA
:10030800A6009930A500A50B8729A60B8729A70B5E
:1003180087290800C0308312A300230883168105AB
:100328008B1608008E21BA208B17DB201320992901
:020338000B2890
:00000001FF
