:020000040000FA
:02000000FA2BD9
:10065200CD237D232A2B00284D234D234D233D23DB
:1006620008004D234D2363233D2308004D234D23D2
:10067200632363233D230800831205110630A20081
:100682001330A100AD30A000A00B452BA10B452BD0
:10069200A20B452B4C2B0800831205159C30A100A0
:1006A200D730A000A00B532BA10B532B83120511A3
:1006B2008230A100DD30A000A00B5D2BA10B5D2BD1
:1006C200622B0800831205150230A2008630A100B9
:1006D2009930A000A00B6B2BA10B6B2BA20B6B2BE9
:1006E200831205118230A100DD30A000A00B772B10
:1006F200A10B772B7C2B08008312A601A7010130E6
:10070200A42383121E08A70083161E088312A600C4
:10071200003027025B30031926020318912B922B1B
:10072200952B85163223A32B003027028C30031918
:100732002602031C9D2B9E2BA12B85163723A32B50
:100742008512051108008312A2009F011F131F14B6
:100752009F17B12B9F111F15C12B9F111F11C12B69
:100762002208A000A1012108003A0319B92BC12BCC
:100772002008013A0319AB2B033A0319AE2BC12B04
:100782000C132130A000A00BC42B83129F140C1F4A
:10079200CB2BCC2BC82B0800073083129900831671
:1007A20099018501831285018316051183120511B2
:1007B200831685128312851683160512831205127B
:1007C2001F1383160514851433309F000B178B17E4
:1007D2002D23831285120D30A500AF30A400B63050
:1007E200A300A30BF22BA40BF22BA50BF22B000000
:0C07F20008008312A601A7018301292B37
:02400E00F4318B
:00000001FF
