:020000040000FA
:02000000FB2BD8
:1004EC00AB22AB22AB2286220800AB22AB22C1226C
:1004FC0086220800AB22AB22C122C1228622080030
:10050C00831205110630A2001330A100AD30A000FB
:10051C00A00B8E2AA10B8E2AA20B8E2A952A0800DC
:10052C00DB22F9224B230D308312AC00AF30AB0031
:10053C00B630AA00AA0BA02AAB0BA02AAC0BA02A9F
:10054C00000095234B23A72A0028831205159C3005
:10055C00A100D730A000A00BB12AA10BB12A8312A5
:10056C0005118230A100DD30A000A00BBB2AA10B2D
:10057C00BB2AC02A0800831205150230A20086305F
:10058C00A1009930A000A00BC92AA10BC92AA20B6B
:10059C00C92A831205118230A100DD30A000A00B06
:1005AC00D52AA10BD52ADA2A080007308312990024
:1005BC008316990185018312850183160511831217
:1005CC000511831685128312851683160512831264
:1005DC0005121F1783160514851433309F000B1753
:1005EC008B17C122080001301C2383122108A6009E
:1005FC002008A500003026028C30031925020318B0
:10060C00082B092B0D2B85120511AD011B2B00306E
:10061C0026028C3003192502031C152B162B1B2BC1
:10062C00851680228312AD01AD0A08008312A40046
:10063C009F011F149F17282B9F111F15382B9F11DB
:10064C001F11382B2408A200A3012308003A031918
:10065C00302B382B2208013A0319222B033A0319A9
:10066C00252B382B0C131030A200A20B3B2B0000B7
:10067C0083129F149F18432B442B402B1E08A10060
:10068C0083161E088312A000080002301C2383125C
:10069C002108A6002008A50002301C238312210883
:1006AC00A6002008A50000302602C8300319250238
:1006BC000318612B622B652B85160512942B0030C9
:1006CC002602C83003192502031C6D2B6E2B7A2BC6
:1006DC0003302602A230031925020318762B772B40
:1006EC007A2B0512AD01942B03302602A23003198C
:1006FC002502031C822B832B8E2B03302602CA303F
:10070C000319250203188B2B8C2B8E2B0516782B9B
:10071C000516851676228312AD01AD0A080001304C
:10072C001C2383122108A9002008A80000302902EC
:10073C005B3003192802031CA42BA52BB82B00300B
:10074C0029028C30031928020318AD2BAE2BB82BC1
:10075C002D08031DB22BB32BB82B85120511831258
:10076C00AD01FA2B003029025B3003192802031C5F
:10077C00C02BC12BDF2B003029028C30031928022F
:10078C000318C92BCA2BDF2B2D03031DCE2BCF2B0C
:10079C00DF2B851205110D30A700AF30A600B63047
:1007AC00A500A50BD72BA60BD72BA70BD72B00007F
:1007BC00B52B003029025B30031928020318E72BF4
:1007CC00E82BEE2B85167B228312AD01AD0AFA2B9A
:1007DC00003029028C3003192802031CF62BF72B4E
:1007EC00FA2B85168022EA2B08008312AD018301B7
:0207FC00962A3B
:02400E00F4318B
:00000001FF
