:020000040000FA
:020000000B28CB
:10000800DE00030E8312A0000A08A10068290C284C
:100018008312AA01AB01AC01AD01AE01AF018301AE
:10002800082ABA2183122F08803ADF0080305F0245
:10003800031D2028C8302E02031823282428392815
:1000480083128516AC01AD01BA211D2283122F0837
:10005800803ADF0080305F02031D3428C8302E024A
:10006800031C372838282828D62883122F08803AD6
:10007800DF0080305F02031D4328C8302E02031CB6
:1000880046284728592883122F08803ADF008330F2
:100098005F02031D512870302E020318542855287A
:1000A80059288312AC01AD01D62883122F08803A53
:1000B800DF0083305F02031D632870302E02031CAB
:1000C800662867287B2883122F08803ADF00833050
:1000D8005F02031D71288E302E02031874287528BC
:1000E8007B281E308312AC000030AD00D628831266
:1000F8002F08803ADF0083305F02031D85288E3089
:100108002E02031C882889289D2883122F08803AEC
:10011800DF0083305F02031D9328AC302E020318E2
:10012800962897289D282D308312AC000030AD000A
:10013800D62883122F08803ADF0083305F02031D20
:10014800A728AC302E02031CAA28AB28C02883128B
:100158002F08803ADF0083305F02031DB528CA30BC
:100168002E020318B828B928C02837308312AC00EB
:100178000030AD004322D628831285165530AC00D6
:100188000030AD00BA21432283122F08803ADF00E5
:1001980083305F02031DD228CA302E020318D528E7
:1001A800D628C6280800942183122F08803ADF0039
:1001B80080305F02031DE228BF302E02031CE528B1
:1001C800E628F82883122F08803ADF0081305F0282
:1001D800031DF0281D302E020318F328F428F828F0
:1001E8008312851205113B2983122F08803ADF00FC
:1001F80080305F02031D0229BF302E020318052933
:1002080006291A298312851655229421552283120C
:100218002F08803ADF0080305F02031D1529BF30A8
:100228002E02031C1829192909293B2983122F0892
:10023800803ADF0081305F02031D24291D302E0221
:10024800031C272928293B2983128516302294214B
:10025800302283122F08803ADF0081305F02031DAD
:1002680037291D302E0203183A293B292B2908006B
:10027800073083129900831699018501831285013D
:1002880083160511831205118316851283128516AC
:1002980083160512831205121F141F1783160514DF
:1002A800851433309F008B17F22104308312A60087
:1002B8008E30A5001230A400A40B6029A50B60297C
:1002C800A60B602900000800C83081000130AA0789
:1002D8000318AB0A0030AB070B1D73297429822958
:1002E8002D082B02031D7A292C082A0203187D29C0
:1002F8007E2980290516812905120B1100302B0251
:10030800653003192A02031C8A298B298D29AA0121
:10031800AB0121088A00200E8300DE0E5E0E090064
:1003280083129F019F179F111F151F140D30A300E3
:10033800FB30A200A20B9E29A30B9E29A32983129E
:100348009F140C1FA829A929A5290D30A300FB304B
:10035800A200A20BAD29A30BAD29B22983121E0856
:10036800AF0083161E088312AE00080083129F0197
:100378009F171F140730A3007D30A200A20BC229CB
:10038800A30BC22983129F140C1FCB29CC29C8297F
:100398000730A3007D30A200A20BD029A30BD029DF
:1003A80083121E08AF0083161E088312AE000800D1
:1003B800831205154E30A300EB30A200A20BE229F0
:1003C800A30BE229831205116830A300E430A200D0
:1003D800A20BEC29A30BEC290000080083120515D9
:1003E800C330A300CD30A200A20BF829A30BF82933
:1003F800831205116830A300E430A200A20B022A80
:10040800A30B022A000008000B308312A900263033
:10041800A8005D30A700A70B0F2AA80B0F2AA90B6D
:100428000F2A162A67223C218B17D7201520192A54
:100438000B28F221F221F221DC2104308312A600DC
:100448008E30A5001230A400A40B282AA50B282A58
:10045800A60B282A00000800DC21DC21F221F22169
:1004680004308312A6008E30A5001230A400A40B1D
:100478003B2AA50B3B2AA60B3B2A00000800DC21DF
:10048800DC21DC2104308312A6008E30A500123056
:10049800A400A40B4D2AA50B4D2AA60B4D2A00003B
:1004A8000800DC21DC21F22104308312A6008E3002
:1004B800A5001230A400A40B5F2AA50B5F2AA60B87
:1004C8005F2A00000800C0308312A20022088316A9
:0604D80081058B160800EF
:02400E00F4318B
:00000001FF
