:020000040000FA
:02000000F92BDA
:10062E009423C123182B00283B233B233B232B234E
:10063E0008003B233B2351232B2308003B233B2362
:10064E00512351232B230800831205110630A200DB
:10065E001330A100AD30A000A00B332BA10B332B18
:10066E00A20B332B3A2B0800831205159C30A100E8
:10067E00D730A000A00B412BA10B412B83120511EB
:10068E008230A100DD30A000A00B4B2BA10B4B2B19
:10069E00502B0800831205150230A2008630A100EF
:1006AE009930A000A00B592BA10B592BA20B592B43
:1006BE00831205118230A100DD30A000A00B652B46
:1006CE00A10B652B6A2B08008312A2009F011F133A
:1006DE001F149F17782B9F111F15882B9F111F1109
:1006EE00882B2208A000A1012108003A0319802BB3
:1006FE00882B2008013A0319722B033A0319752B24
:10070E00882B0C132130A000A00B8B2B83129F146F
:10071E000C1F922B932B8F2B0800073083129900FE
:10072E0083169901850183128501831605118312A3
:10073E0005118316851283128516831605128312F0
:10074E0005121F1383160514851433309F000B17E3
:10075E008B171B23831285120D30A500AF30A4001A
:10076E00B630A300A30BB92BA40BB92BA50BB92B39
:10077E00000008008312A601A70101306B2383122B
:10078E001E08A70083161E088312A600003027023B
:10079E005630031926020318D52BD62BDD2B8516C2
:1007AE000130DF005F08A8002023F82B003027025D
:1007BE00823003192602031CE52BE62BED2B851642
:1007CE000130DF005F08A8002523F82B85120730C3
:1007DE00A4007D30A300A30BF22BA40BF22B8312EB
:1007EE00051108008312A601A701A8018301172B8A
:02400E00F4318B
:00000001FF
