:020000040000FA
:02000000FD2BD6
:10070800A123852B0028831205150230A20086300C
:10071800A1009930A000A00B8F2BA10B8F2BA20B4F
:100728008F2B831205118230A100DD30A000A00BB1
:100738009B2BA10B9B2BA02B080007308312990041
:100748008316990185018312850183160511831289
:1007580005118316851283128516831605128312D6
:1007680005121F1783160514851433309F000B17C5
:100778008B178723C02B85120130CE2300308312BC
:100788002102503003192002031CCB2BCC2BBF2B8A
:10079800851208008312A4009F011F149F17DA2BEB
:1007A8009F111F15EA2B9F111F11EA2B2408A20085
:1007B800A3012308003A0319E22BEA2B2208013A85
:1007C8000319D42B033A0319D72BEA2B0C13103037
:1007D800A200A20BED2B000083129F149F18F52B8B
:1007E800F62BF22B1E08A10083161E088312A00008
:0607F80008008301842BC0
:02400E00F4318B
:00000001FF
