:020000040000FA
:020000000B28CB
:10000800DE00030E8312A2000A08A300E2280C28CF
:10001800C321B100AB01AC01AD01AE01AF01B0012C
:1000280083011628BA211521A92183120C1F1D2826
:100038001E281928D0281E08AC0083161E08831213
:10004800AB0000302C02BF3003192B02031C2D28F3
:100058002E283E2801302C021D3003192B020318CC
:10006800362837283E282F0303193B283C283E28EA
:100078008512552800302C02BF3003192B020318B3
:10008800462847284A2885168721552801302C02FA
:100098001D3003192B02031C522853285528851696
:1000A8007521622119281E08AC0083161E088312C8
:1000B800AB0000302C02C83003192B020318652846
:1000C80066286B288516B001AF01AF0ACE2800302C
:1000D8002C02C83003192B02031C732874288028AB
:1000E80003302C02703003192B0203187C287D285A
:1000F8008028B001AF01CE2803302C0270300319DC
:100108002B02031C88288928982803302C028E305B
:1001180003192B0203189128922898281E30A90049
:100128002908B000AF01CE2803302C028E30031905
:100138002B02031CA028A128AF2803302C02AC30C6
:1001480003192B020318A928AA28AF282D30A900C3
:100158002908B000962803302C02AC3003192B0272
:10016800031CB728B828C62803302C02CA30031944
:100178002B020318C028C128C6283730A90029082F
:10018800B000962885165530A9002908B000AF019F
:10019800AF0A9821A92119283108A900AA012A081B
:1001A800003A0319D828E0282908013A03191F281A
:1001B800033A03195728E02819280B28C83081006A
:1001C8008B1EE728E8280E290B1DEB28EC280E29A2
:1001D8000130AD070318AE0A0030AE073008A000A2
:1001E800A10121082E02031DFB2820082D02031857
:1001F800FE28FF2801290516022905120B110030D7
:100208002E02653003192D02031C0B290C290E2917
:10021800AD01AE0123088A00220E8300DE0E5E0EB9
:10022800090007308312990083169901850183120A
:100238008501831605118312051183168512831211
:10024800851683160512831205121F1783160514C7
:10025800851433309F000B178B174C218312AB0189
:10026800AC010800831205154E30A500EB30A40040
:10027800A40B3C29A50B3C29831205116830A50065
:10028800E430A400A40B4629A50B46290000080069
:1002980083120515C330A500CD30A400A40B522944
:1002A800A50B5229831205116830A500E430A4007B
:1002B800A40B5C29A50B5C290000080083129F0190
:1002C8001F149F179F111F110230A4002408B100AA
:1002D8000C130930A400A40B6F29722983129F14F0
:1002E8000800362136214C214C2102308312A80007
:1002F8008630A7009930A600A60B8029A70B802975
:10030800A80B80290800362136214C21023083129F
:10031800A8008630A7009930A600A60B9129A70B44
:100328009129A80B9129080036213621362102305F
:100338008312A8008630A7009930A600A60BA22930
:10034800A70BA229A80BA229080083129F011F143A
:100358009F179F111F15B101B10A0C130930A40092
:10036800A40BB429B72983129F140800C030831244
:10037800A4002408831681050B118B16080001348C
:00000001FF
