:020000040000FA
:02000000FB2BD8
:10051400BF22BF22BF229A220800BF22BF22D522B7
:100524009A220800BF22BF22D522D5229A2208008F
:10053400831205110630A2001330A100AD30A000D3
:10054400A00BA22AA10BA22AA20BA22AA92A080064
:10055400EF220D2361230D308312AC00AF30AB00CA
:10056400B630AA00AA0BB42AAB0BB42AAC0BB42A3B
:100574000000AD236123BB2A0028831205159C309B
:10058400A100D730A000A00BC52AA10BC52A831255
:1005940005118230A100DD30A000A00BCF2AA10BF1
:1005A400CF2AD42A0800831205150230A20086300F
:1005B400A1009930A000A00BDD2AA10BDD2AA20B1B
:1005C400DD2A831205118230A100DD30A000A00BCA
:1005D400E92AA10BE92AEE2A0800073083129900C0
:1005E40083169901850183128501831605118312EF
:1005F400051183168512831285168316051283123C
:1006040005121F1783160514851433309F000B172A
:100614008B17D52208000130322383122108A6004B
:100624002008A500003026028C3003192502031887
:100634001C2B1D2B212B85120511AD01312B0030F4
:1006440026028C3003192502031C292B2A2B312B5B
:10065400851694220130DF005F088312AD00080084
:100664008312A4009F011F149F173E2B9F111F1577
:100674004E2B9F111F114E2B2408A200A301230807
:10068400003A0319462B4E2B2208013A0319382B42
:10069400033A03193B2B4E2B0C131030A200A20B70
:1006A400512B000083129F149F18592B5A2B562B41
:1006B4001E08A10083161E088312A0000800023041
:1006C400322383122108A6002008A5000230322319
:1006D40083122108A6002008A50000302602C83095
:1006E400031925020318772B782B7B2B851605120B
:1006F400AC2B00302602C83003192502031C832BBF
:10070400842B902B03302602A230031925020318F0
:100714008C2B8D2B902B0512AD01AC2B03302602B4
:10072400A23003192502031C982B992BA42B033008
:100734002602CA30031925020318A12BA22BA42BCD
:1007440005168E2B051685168A220130DF005F08F8
:100754008312AD0008000130322383122108A9005E
:100764002008A800003029025B3003192802031C6A
:10077400BC2BBD2BDD2B003029028C300319280241
:100784000318C52BC62BDD2B851205112D03031D64
:10079400CC2BCD2BDA2B0D30A700AF30A600B63012
:1007A400A500A50BD32BA60BD32BA70BD32B000093
:1007B4008312AD01FA2B003029025B3003192802A1
:1007C4000318E52BE62BEE2B85168F220130DF0074
:1007D4005F088312AD00FA2B003029028C30031914
:1007E4002802031CF62BF72BFA2B85169422E82BF0
:0A07F40008008312AD018301AA2A58
:02400E00F4318B
:00000001FF
