:020000040000FA
:020000000B28CB
:10000800DE00030E8312A0000A08A10080290C2834
:100018008312AB01AC01AD01AE01AF01B0018301A8
:10002800632A83129F019F171F140730A3007D3096
:10003800A200A20B1D28A30B1D2883129F140C1FBE
:100048002628272823280730A3007D30A200A20BEA
:100058002B28A30B2B2883121E08B00083161E081A
:100068008312AF003008803ADF0080305F02031D42
:100078003F28C8302F02031C4228432858288312DF
:100088003008803ADF0081305F02031D4D288B3035
:100098002F02031850285128582819308312AD0010
:1000A8000030AE000130B72883123008803ADF00F4
:1000B80081305F02031D62288B302F02031C6528E4
:1000C80066287B2883123008803ADF0082305F027E
:1000D800031D702880302F020318732874287B288A
:1000E80028308312AD000030AE000130B7288312EB
:1000F8003008803ADF0082305F02031D8528803097
:100108002F02031C882889289E2883123008803AE9
:10011800DF0083305F02031D9328E8302F020318A5
:10012800962897289E2841308312AD000030AE00F3
:100138000130B72883123008803ADF0083305F022D
:10014800031DA828E8302F02031CAB28AC28B328CD
:100158005F308312AD000030AE000130B728831243
:10016800AD01AE010030080083129F019F179F1157
:100178001F151F140D30AA00FB30A900A90BC228B7
:10018800AA0BC228C72883129F140C1FCC28CD287D
:10019800C9280D30AA00FB30A900A90BD128AA0B49
:1001A800D128D62883121E08B00083161E08831291
:1001B800AF003008803ADF0080305F02031DE62878
:1001C800BF302F02031CE928EA28FC2883123008D4
:1001D800803ADF0081305F02031DF4281D302F02B2
:1001E8000318F728F828FC288312851201301D29E6
:1001F800831285163008803ADF0080305F02031DC5
:100208000729BF302F0203180A290B290D29AC2111
:100218001C2983123008803ADF0081305F02031DF9
:1002280017291D302F02031C1A291B291C294F21AD
:10023800003008002B2282308312A700DD30A60090
:10024800A60B2429A70B242929292B2282308312C3
:10025800A700DD30A600A60B2F29A70B2F293429CC
:100268002B2282308312A700DD30A600A60B3A2984
:10027800A70B3A293F29122203308312A8008A309B
:10028800A7005530A600A60B4729A70B4729A80B9E
:1002980047294E290800122282308312A700DD3038
:1002A800A600A60B5529A70B55295A2912228230D8
:1002B8008312A700DD30A600A60B6029A70B6029D2
:1002C80065292B2282308312A700DD30A600A60BF9
:1002D8006B29A70B6B2970292B2203308312A800E6
:1002E8008A30A7005530A600A60B7829A70B7829D5
:1002F800A80B78297F290800C83081000130AB0796
:100308000318AC0A0030AC070B1D8B298C299A29DD
:100318002E082C02031D92292D082B02031895295B
:10032800962998290516992905120B1100302C02D7
:10033800653003192B02031CA229A329A529AB01A7
:10034800AC0121088A00200E8300DE0E5E0E090033
:10035800122282308312A700DD30A600A60BB22934
:10036800A70BB229B729122282308312A700DD30E9
:10037800A600A60BBD29A70BBD29C2292B22033035
:100388008312A8008A30A7005530A600A60BCA29F8
:10039800A70BCA29A80BCA29D12908001520003A99
:1003A800031DD729D829DC29831285161E21F42993
:1003B8001520003A0319E129E229F429B820003A66
:1003C800031DE729E829EB2983128516F429B820AB
:1003D800003A0319F029F129F42983128512F42926
:1003E800080007308312990083169901850183124A
:1003F8008501831605118312051183168512831250
:10040800851683160512831205121F141F178316EB
:100418000514851433309F008B1708008312A4013C
:10042800A501442201308312A4070318A50A00304D
:10043800A5072508803ADF0080305F02031D262AC1
:100448000F302402031C292A2A2A152A080083129D
:10045800A401A501442201308312A4070318A50AA8
:100468000030A5072508803ADF0080305F02031DB1
:100478003F2A28302402031C422A432A2E2A080035
:10048800831205150D30A300FB30A200A20B4A2AE7
:10049800A30B4A2A4F2A831205110D30A300FB3003
:1004A800A200A20B552AA30B552A5A2A0800C030CD
:1004B8008312A2002208831681058B1608005B228E
:0A04C800F5218B17D221662A0B28BC
:02400E00F4318B
:00000001FF
