:020000040000FA
:020000000B28CB
:10000800DE00030E8312A0000A08A10042280C2873
:100018008312AA01AB01AC01AD01AE01AF01B00181
:10002800830184280730831299008316990185017A
:100038008312850183160511831205118316851213
:100048008312851683160512831205121F141F17B3
:1000580083160514851433309F008B176E200430E7
:100068008312A6008E30A5001230A400A40B3A28F3
:10007800A50B3A28A60B3A2800000800C8308100D2
:100088000130AA070318AB0A0030AB070B1D4D2837
:100098004E285C282D082B02031D54282C082A0200
:1000A8000318572858285A2805165B2805120B11DB
:1000B80000302B02653003192A02031C64286528C6
:1000C8006728AA01AB0121088A00200E8300DE0EF2
:1000D8005E0E090083120515C330A300CD30A200BF
:1000E800A20B7428A30B7428831205116830A3008F
:1000F800E430A200A20B7E28A30B7E280000080093
:100108000C308312A900AB30A800F930A700A70B68
:100118008B28A80B8B28A90B8B28922897201620B0
:100128008B1795280B28C0308312A200220883164B
:0601380081058B16080092
:02400E00F4318B
:00000001FF
