:020000040000FA
:020000000B28CB
:10000800DE00030E8312A0000A08A10077290C283D
:100018008312AA01AB01AC01AD01AE01AF01B00181
:100028008301172AC92183122F08803ADF00803004
:100038005F02031D2128C8302E0203182428252812
:100048003A2883128516AC01AD01C9212C228312EE
:100058002F08803ADF0080305F02031D3528C83042
:100068002E02031C382839282928D72883122F085C
:10007800803ADF0080305F02031D4428C8302E021A
:10008800031C472848285A2883122F08803ADF0083
:1000980083305F02031D522870302E020318552842
:1000A80056285A288312AC01AD01D72883122F088D
:1000B800803ADF0083305F02031D642870302E020F
:1000C800031C672868287C2883122F08803ADF00E1
:1000D80083305F02031D72288E302E0203187528A4
:1000E80076287C281E308312AC000030AD00D7285B
:1000F80083122F08803ADF0083305F02031D8628B1
:100108008E302E02031C89288A289E2883122F08E5
:10011800803ADF0083305F02031D9428AC302E0242
:100128000318972898289E282D308312AC00003099
:10013800AD00D72883122F08803ADF0083305F0292
:10014800031DA828AC302E02031CAB28AC28C128FC
:1001580083122F08803ADF0083305F02031DB62820
:10016800CA302E020318B928BA28C128373083129A
:10017800AC000030AD005222D728831285165530C6
:10018800AC000030AD00C921522283122F08803AFA
:10019800DF0083305F02031DD328CA302E02031804
:1001A800D628D728C7280800A32183122F08803A09
:1001B800DF0080305F02031DE328BA302E02031CE3
:1001C800E628E728232983122F08803ADF008130A8
:1001D8005F02031DF12816302E020318F428F528B3
:1001E800232983123008031DFA28FB28FD288512CD
:1001F8004A293003031D012902294A292F08803A78
:10020800DF0080305F02031D0B29F0302E02031C33
:100218000E290F29222983122F08803ADF00813006
:100228005F02031D192904302E0203181C291D29F9
:100238002229203083128506B0014A294A298312CF
:100248002F08803ADF0080305F02031D2D29BF3060
:100258002E02031830293129372983128516B00157
:10026800B00A64224A2983122F08803ADF008130BD
:100278005F02031D41291D302E02031C4429452914
:100288004A2983128516B001B00A3F2208000730B8
:1002980083129900831699018501831285018316BB
:1002A800051183120511831685128312851683168C
:1002B8000512831205121F141F17831605148514BF
:1002C80033309F008B17012204308312A6008E3032
:1002D800A5001230A400A40B6F29A50B6F29A60B4B
:1002E8006F2900000800C83081000130AA070318F0
:1002F800AB0A0030AB070B1D8229832991292D08F1
:100308002B02031D89292C082A0203188C298D2900
:100318008F290516902905120B1100302B02653024
:1003280003192A02031C99299A299C29AA01AB01BD
:1003380021088A00200E8300DE0E5E0E090083125B
:100348009F019F179F111F151F140D30A300FB302D
:10035800A200A20BAD29A30BAD29B22983129F14C9
:100368000C1FB729B829B4290D30A300FB30A2000F
:10037800A20BBC29A30BBC29C12983121E08AF00FC
:1003880083161E088312AE00080083129F019F1770
:100398001F140730A3007D30A200A20BD129A30BA4
:1003A800D12983129F140C1FDA29DB29D72907309A
:1003B800A3007D30A200A20BDF29A30BDF29831243
:1003C8001E08AF0083161E088312AE0008008312B1
:1003D80005154E30A300EB30A200A20BF129A30BA8
:1003E800F129831205116830A300E430A200A20BA2
:1003F800FB29A30BFB290000080083120515C33055
:10040800A300CD30A200A20B072AA30B072A831250
:1004180005116830A300E430A200A20B112AA30B37
:10042800112A000008000C308312A900AB30A80084
:10043800F930A700A70B1E2AA80B1E2AA90B1E2AF3
:10044800252A76224B218B17D8201620282A0B28FC
:10045800012201220122EB2104308312A6008E30F2
:10046800A5001230A400A40B372AA50B372AA60B27
:10047800372A00000800EB21EB2101220122043079
:100488008312A6008E30A5001230A400A40B4A2ABD
:10049800A50B4A2AA60B4A2A00000800EB21EB21EB
:1004A800EB2104308312A6008E30A5001230A40080
:1004B800A40B5C2AA50B5C2AA60B5C2A000008008A
:1004C800EB21EB21012204308312A6008E30A50017
:1004D8001230A400A40B6E2AA50B6E2AA60B6E2A56
:1004E80000000800C0308312A2002208831681058C
:0404F8008B16080057
:02400E00F4318B
:00000001FF
