:020000040000FA
:020000000D28C9
:10000800DE00030E8312A3000408A4000A08A5005A
:100018001A280E286822AD006922AE00A701A8019F
:10002800A901AA01AB01AC018301622A0B1D1D289D
:100038001E282328AC01AC0A063081000B110C1CC9
:10004800262827285028FC308F0017308E000130D2
:10005800A9070318AA0A0030AA073828CC214E2875
:1000680084214E28EB214E282D08A100A201220848
:10007800003A031940284E282108013A03194E284E
:10008800033A03193228013A03193428063A0319A6
:1000980036284E2883120C100C1F53285428EA289F
:1000A800DA281E08A80083161E088312A70000304D
:1000B8002802BF3003192702031C63286428752807
:1000C800013028021D300319270203186C286D28F7
:1000D80075282D03031D71287228752885120511AE
:1000E800922800302802BF300319270203187D2800
:1000F8007E28842885160230A1002108AD009228A8
:10010800013028021D3003192702031C8C288D2872
:10011800922885160330A1002108AD000A22EA289A
:100128001E08A80083161E088312A70000302802A4
:10013800C830031927020318A228A328A628851661
:100148000512D82800302802C83003192702031CDA
:10015800AE28AF28BC2803302802703003192702C4
:100168000318B728B828BC280512AD01AD0AD8284D
:1001780003302802703003192702031CC428C5283D
:10018800D22803302802CA30031927020318CD28C1
:10019800CE28D2280516AD01AD0AD8280516851631
:1001A8000530A1002108AD002E22EA282E08A10062
:1001B800A2012208003A0319E228EA282108013A94
:1001C80003195528033A03199428EA2883122508A5
:1001D8008A0024088400230E8300DE0E5E0E0900C8
:1001E800003083122A02C930031929020318FD2896
:1001F800FE2800290515232900302A02C9300319D1
:100208002902031C08290929142901302A025F3010
:100218000319290203181129122914290511232960
:1002280001302A025F3003192902031C1C291D29E9
:100238002329A901AA010130A6002608AB07080056
:10024800003083122A02C9300319290203182D2904
:100258002E2930290515532900302A02C9300319DF
:100268002902031C38293929442901302A025F3020
:100278000319290203184129422944290511532940
:1002880001302A025F3003192902031C4C294D2929
:100298005329A901AA010130A0002008AB070800D2
:1002A800003083122A0279300319290203185D29C4
:1002B8005E2960290515832900302A02793003193F
:1002C8002902031C68296929742900302A02C930C7
:1002D8000319290203187129722974290511832920
:1002E80000302A02C93003192902031C7C297D2900
:1002F8008329A901AA010130A0002008AB07080042
:1003080083122B08031D89298A298B2954218312DA
:100318002B03031D9029912992295421023083121D
:100328002B06031D982999299A2924210330831221
:100338002B06031DA029A129A229242104308312F8
:100348002B02031CA829A929AA293F220800073043
:1003580083129900831699018501831285018316FA
:1003680005118312051183168512831285168316CB
:100378000512831205121F178316051485143330CE
:100388009F000B178B17F4208312A701A801080000
:1003980083122B08031DD129D229D3295421831272
:1003A8002B03031DD829D929DA29542102308312B5
:1003B8002B06031DE029E129E229242103308312B9
:1003C8002B02031CE829E929EA293F2208008312A5
:1003D8002B08031DF029F129F229542183122B033C
:1003E800031DF729F829F9295421023083122B0615
:1003F800031DFF29002A012A5421033083122B02EE
:10040800031C072A082A092A3F22080083129F0191
:100418001F149F179F111F110230A0002008AE0063
:100428000C132C03031D192A1A2A152AAC019F1430
:10043800080083129F011F149F179F111F15AE01FB
:10044800AE0A0C132C03031D2A2A2B2A262AAC01D8
:100458009F14080083129F011F149F179F111F15D7
:10046800AE01AE0A0C132C03031D3B2A3C2A372A83
:10047800AC019F140800033083122A02E9300319E3
:1004880029020318482A492A4B2A05114E2AA9018C
:10049800AA01AB010800FC3083128F0017308E00D0
:1004A800013090000C1083160C140800C13083161C
:1004B8008100831281010B118B1608005A224F22EA
:0C04C800AB211D22662A0D2801340134EE
:02400E00F4318B
:00000001FF
