:020000040000FA
:020000000B28CB
:10000800DE00030E8312A6000A08A70002290C28A6
:100018008312A001A101A201A301A401A5018301EA
:100028006F2983129F019F171F140D30A900FB3001
:10003800A800A80B1D28A90B1D28222883129F148D
:100048000C1F2728282824280D30A900FB30A800D9
:10005800A80B2C28A90B2C28312883121E08A500D0
:1000680083161E088312A4002508803ADF0080301A
:100078005F02031D4128C8302402031C4428452878
:100088005A2883122508803ADF0081305F02031D59
:100098004F288B3024020318522853285A28193025
:1000A8008312A2000030A3000130B928831225086A
:1000B800803ADF0081305F02031D64288B30240200
:1000C800031C672868287D2883122508803ADF00EA
:1000D80082305F02031D72288030240203187528BD
:1000E80076287D2828308312A2000030A300013032
:1000F800B92883122508803ADF0082305F02031D89
:10010800872880302402031C8A288B28A028831281
:100118002508803ADF0083305F02031D9528E83008
:100128002402031898289928A02841308312A20095
:100138000030A3000130B92883122508803ADF0077
:1001480083305F02031DAA28E8302402031CAD286F
:10015800AE28B5285F308312A2000030A30001301A
:10016800B9288312A201A3010030080083129F015D
:100178009F179F111F151F140D30A900FB30A800F1
:10018800A80BC428A90BC428C92883129F140C1FC4
:10019800CE28CF28CB280D30A900FB30A800A80B0B
:1001A800D328A90BD328D82883121E08A5008316A4
:1001B8001E088312A4002508803ADF0081305F0200
:1001C800031DE828B9302402031CEB28EC28FE287C
:1001D80083122508803ADF0082305F02031DF6286B
:1001E800083024020318F928FA28FE2883128512F9
:1001F800013001298312851600300800C8308100BB
:100208000130A0070318A10A0030A1070B1D0D2912
:100218000E291C2923082102031D14292208200263
:100228000318172918291A2905161B2905120B1155
:1002380000302102653003192002031C24292529D6
:100248002729A001A10127088A00260E8300DE0EB7
:100258005E0E09001520003A031D33293429372979
:10026800831285164D291520003A03193C293D298A
:100278004D29BA20003A031D42294329442934292B
:10028800BA20003A031949294A294D2983128512AF
:100298004D290800073083129900831699018501BA
:1002A800831285018316851283128516831605121B
:1002B800831205121F141F17831605148514333073
:1002C8009F008B170800C0308312A80028088316E7
:1002D80081058B16080067214E218B172E21722964
:0202E8000B28E1
:00000001FF
