:020000040000FA
:020000000B28CB
:10000800DE00030E8312BA000A08BB00B02A0C28CF
:100018008313203084003A30E3228301F32A8312C9
:10002800CD01CC015128B91C1A281B281F280230E1
:10003800CD00CC01CC0A391A222823286728B4011C
:10004800B40A6728391D29282A282E280230CD000D
:100058000230CC00391A3128322867280230B4001F
:100068006728B91D382839283C280330CD00CC0131
:10007800391A3F28402867280330B4006728B91E7A
:10008800462847284A28CD01CC01CC0A391A4D28E0
:100098004E286728B401B91267283408C500C6017C
:1000A8004608003A0319592867284508003A0319F1
:1000B8001728013A03192628033A03193528013A63
:1000C8000319432867284C084D07C900CA018D2821
:1000D8004908FF3EC500FF3003180030C6004A0833
:1000E80045064604031D79287A2882287830C200FC
:1000F8000030C300C401C40A3E2288287830C200F8
:100108000030C300C4013E220130DF005F088312C3
:10011800CA074D084A02031C922893286C28CB0171
:10012800BE284908FF3EC500FF3003180030C6004E
:100138004D084B07C700C801C80D46084806031DEF
:10014800A72845084706031DAA28AB28B3282C3042
:10015800C2000130C300C401C40A3E22B9282C30B1
:10016800C2000130C300C4013E220130DF005F0835
:100178008312CB074C084B02031CC328C4289528BC
:10018800080083120C1FC928CA285D291E08C00050
:1001980083161E088312BF004D29003040026130CB
:1001A80003193F02031CD928DA28ED280030400241
:1001B800943003193F020318E228E328ED28B919FF
:1001C800E628E728E9288512EA288516B9103911A2
:1001D800042900304002613003193F020318F52852
:1001E800F628F9288516B9140429003040029430FD
:1001F80003193F02031C0129022904298516391510
:10020800D4228312B301B30A5D2903304002A2301D
:1002180003193F020318112912291F29B918152992
:1002280016291C29391919291A291C2985121D2949
:100238008516B911492903304002A33003193F023A
:10024800031C272928293E2903304002CA300319F4
:100258003F020318302931293E29B9183429352994
:100268003B293919382939293B2985123C29851612
:10027800B911492903304002CB3003193F02031C4E
:100288004629472949298516B915C5228312B3017C
:100298005D293308BD00BE013E08003A03195529FF
:1002A8005D293D08003A0319D128013A03190929A3
:1002B8005D290800CC2938083706031964296529FF
:1002C800E3290330BC0038089A22203E84008313B7
:1002D80000088312AF00840A0008B0000330BC0095
:1002E80038089A22223E8400831300088312B5003E
:1002F8000530BC000030BD003808013EBE000030AB
:1003080003180130BF00E42183123C08B80005152A
:10031800B101B201B601B60A3916E3293008320232
:10032800031D98292F083102031C9B299C29E329C6
:10033800B101B2010230B6000511E32900303202E2
:10034800503003193102031CAA29AB29E329B10152
:10035800B2013508031DB129B229B429B601E32930
:100368003503031DB829B929E3290330B600E32969
:1003780005303202143003193102031CC429C5297F
:10038800E329B101B201B801B701B6013912E32975
:1003980083123608C200C3014308003A0319D5295D
:1003A800E3294208003A03195F29013A03199229FF
:1003B800033A0319A229013A0319BC29E3290800C1
:1003C8008312C101BF1FE929EA29F129BE09BF0922
:1003D800BE0A0319BF0AC101C10ABD1FF429F529C4
:1003E800FA29BC09BD09BC0A0319BD0A3C083D0429
:1003F8000319FF29002A2F2AC001C00A0E2A01303A
:100408000310BC0DBD0DFF3E031D042A0130DF00A3
:100418005F08C007BD1F112A122A032A3D083F02A0
:10042800031D182A3C083E02031C1B2A1C2A222AE8
:100438003C08BE023D08031CBF03BF020130031085
:10044800BD0CBC0CFF3E031D232A0130C002031D56
:100458002E2A2F2A122A41080319332A342A392A24
:10046800BE09BF09BE0A0319BF0A3F08BD003E08FE
:10047800BC00080005308312BC000030BD003708FE
:10048800013EBE00003003180130BF00E421831292
:1004980038083C063D040319522A532A792A0330A6
:1004A800BC0037089A22203E840083124208831336
:1004B8008000840A430880000330BC0037089A2271
:1004C800223E840083124408831380000530BC0058
:1004D8000030BD003708013EBE000030031801306F
:1004E800BF00E42183123C08B700080007308312DC
:1004F80099008316990185018312850183160511D8
:100508008312051183168512831285168316051228
:10051800831205161F1383160514851433309F00A4
:100528000B178B178312B916C52208008312BE0059
:10053800BD013E1CA02AA12AA52A3C08DF005F08AD
:10054800BD070310BC0D0310BE0C3E08031DAD2AE9
:10055800AE2A9D2A3D0808000B1DB32AB42ABE2ADC
:10056800053081000130B1070318B20A0030B20724
:100578000B118B163B088A003A0E8300DE0E5E0EC6
:10058800090083129F011F149F179F111F150C1339
:100598001030BC00BC0BCE2A000083129F14080048
:1005A80083129F011F149F179F111F110C131030E6
:1005B800BC00BC0BDD2A000083129F1408006400F5
:1005C8008001840A0406031900340406E42AC130B1
:1005D80083168100831281010B118B160800EB2210
:0C05E8007A22C52013205E21F52A0B2882
:02400E00F4318B
:00000001FF
