:020000040000FA
:020000000D28C9
:10000800DE00030E8312AC000408AD000A08AE003F
:100018001D280E285322B2005422B300A001A101CA
:10002800A201A301A401A501A601A701A8018301BA
:10003800DB280B1D202821282828063081000130C4
:10004800AA002A08A8070B110C1C2B282C283728D3
:10005800FC308F0017308E000130A2070318A30A66
:100068000030A3070C100C1F3A283B28D128C128C0
:100078001E08A10083161E088312A000003021026A
:10008800BF3003192002031C4A284B285C28013082
:1000980021021D30031920020318532854285C2814
:1000A8003203031D582859285C2885120511792820
:1000B80000302102BF300319200203186428652884
:1000C8006B2885160230AA002A08B2007928013068
:1000D80021021D3003192002031C73287428792873
:1000E80085160330AA002A08B200FB21D1281E0871
:1000F800A10083161E088312A00000302102C83018
:1001080003192002031889288A288D2885160512C4
:10011800BF2800302102C83003192002031C95288B
:100128009628A328033021027030031920020318EF
:100138009E289F28A3280512B201B20ABF280330BF
:100148002102703003192002031CAB28AC28B928FF
:1001580003302102CA30031920020318B428B52835
:10016800B9280516B201B20ABF280516851605304A
:10017800AA002A08B2001F22D1283308AA00AB011E
:100188002B08003A0319C928D1282A08013A03196B
:100198003C28033A03197B28D12883122E088A00A9
:1001A8002D0884002C0E8300DE0E5E0E09004B2203
:1001B80040229C210E2283123208B0003008A6008B
:1001C8001E302806031DE928EA28EF283208B00067
:1001D8003008A500A801260825060319F428F528E3
:1001E800FE28B201B20AFE28BD21DF287521DF28CA
:1001F800DC21DF283208B000B1013108003A0319C8
:100208000629DF283008013A0319DF28033A0319C1
:10021800F828013A0319FA28063A0319FC28DF28B6
:100228000D280030831223027930031922020318A3
:100238001E291F2921290515442900302302793058
:1002480003192202031C29292A29352900302302EF
:10025800C930031922020318322933293529051117
:10026800442900302302C93003192202031C3D2906
:100278003E294429A201A3010130AF002F08A40799
:100288000800003083122302C93003192202031820
:100298004E294F2951290515742900302302C930E8
:1002A80003192202031C59295A29652901302302FE
:1002B8005F30031922020318622963296529051191
:1002C8007429013023025F3003192202031C6D29AF
:1002D8006E297429A201A3010130AF002F08A407D9
:1002E800080083122408031D7A297B297C291521FB
:1002F80083122403031D81298229832915210230B1
:1003080083122406031D89298A298B294521033054
:1003180083122406031D912992299329452104302B
:1003280083122402031C99299A299B293022080048
:10033800073083129900831699018501831285017C
:1003480083160511831205118316851283128516EB
:1003580083160512831205121F17831605148514B8
:1003680033309F000B178B1745218312A001A10181
:10037800080083122408031DC229C329C429152192
:1003880083122403031DC929CA29CB291521023048
:1003980083122406031DD129D229D32945210330EC
:1003A80083122402031CD929DA29DB293022080008
:1003B80083122408031DE129E229E3291521831268
:1003C8002403031DE829E929EA29152102308312AB
:1003D8002406031DF029F129F2291521033083127F
:1003E8002402031CF829F929FA293022080083126B
:1003F8009F011F149F179F111F110230A900290880
:10040800B3000C131030A900A90B082A00008312AE
:100418009F14080083129F011F149F179F111F1517
:10042800B301B30A0C131030AF00AF0B192A000048
:1004380083129F14080083129F011F149F179F1196
:100448001F15B301B30A0C131030A900A90B2A2AEF
:10045800000083129F140800033083122302E9303E
:10046800031922020318392A3A2A3C2A05113F2A7D
:10047800A201A301A4010800FC3083128F001730E9
:100488008E00013090000C1083160C140800C13047
:1004980083168100831281010B118B160800013429
:0204A80001341D
:02400E00F4318B
:00000001FF
