:020000040000FA
:020000000B28CB
:10000800DE00030E8312A0000A08A10025290C288F
:100018008312A901AA01AB01AC01AD01AE018301B4
:100028001C2A7C2183122E08803ADF0080305F0270
:10003800031D2028C8302D020318232824282A2825
:1000480083128516AB01AC01CA21BC2883122E0885
:10005800803ADF0080305F02031D3428C8302D024B
:10006800031C372838284B2883122E08803ADF00D3
:1000780083305F02031D422870302D020318452883
:1000880046284B2883128512AB01AC01BC28831289
:100098002E08803ADF0083305F02031D5528703038
:1000A8002D02031C582859286E2883122E08803ADE
:1000B800DF0083305F02031D63288E302D02031892
:1000C800662867286E28831285121E30AB00003020
:1000D800AC00BC2883122E08803ADF0083305F0210
:1000E800031D78288E302D02031C7B287C2891283C
:1000F80083122E08803ADF0083305F02031D8628B2
:10010800AC302D02031889288A2891288312851279
:100118002D30AB000030AC00BC2883122E08803A8A
:10012800DF0083305F02031D9B28AC302D02031CC7
:100138009E289F28B52883122E08803ADF00833036
:100148005F02031DA928CA302D020318AC28AD2868
:10015800B528831285123730AB000030AC00F0218F
:10016800BC28831285165530AB000030AC00B3288C
:10017800080083129F019F179F111F151F140D3030
:10018800A800FB30A700A70BC728A80BC728CC28B6
:1001980083129F140C1FD128D228CE280D30A80016
:1001A800FB30A700A70BD628A80BD628DB2883127C
:1001B8001E08AE0083161E088312AD002E08803A72
:1001C800DF0080305F02031DEB28BF302D02031CC7
:1001D800EE28EF28012983122E08803ADF008130AB
:1001E8005F02031DF9281D302D020318FC28FD2885
:1001F8000129831285120511242983122E08803AB9
:10020800DF0080305F02031D0B29BF302D02031869
:100218000E290F29132983128516022224298312F5
:100228002E08803ADF0081305F02031D1D291D3032
:100238002D02031C20292129242983128516DD215A
:100248000800C83081000130A9070318AA0A003045
:10025800AA070B1D302931293F292C082A02031D22
:1002680037292B08290203183A293B293D29051665
:100278003E2905120B1100302A02653003192902A4
:10028800031C472948294A29A901AA0121088A00EB
:10029800200E8300DE0E5E0E09000D308312A400CE
:1002A800AF30A300B630A200A20B5829A30B5829DF
:1002B800A40B58290000073083129900831699016E
:1002C8008501831285018316051183120511831692
:1002D80085128312851683160512831205121F14C0
:1002E8001F1783160514851433309F008B170800D9
:1002F80083129F019F171F140730A3007D30A200AF
:10030800A20B8429A30B842983129F140C1F8D2907
:100318008E298A290730A3007D30A200A20B9229DA
:10032800A30B922983121E08AE0083161E0883129F
:10033800AD000800831205154E30A300EB30A20073
:10034800A20BA429A30BA429831205116830A300CA
:10035800E430A200A20BAE29A30BAE2900000800CE
:1003680083120515C330A300CD30A200A20BBA2911
:10037800A30BBA29831205116830A300E430A20048
:10038800A20BC429A30BC42900000800B421B4217E
:10039800B4219E2104308312A6008E30A5001230AD
:1003A800A400A40BD529A50BD529A60BD529000097
:1003B80008009E219E21B421B42104308312A60096
:1003C8008E30A5001230A400A40BE829A50BE8295B
:1003D800A60BE829000008009E219E219E210430DA
:1003E8008312A6008E30A5001230A400A40BFA29AF
:1003F800A50BFA29A60BFA29000008009E219E21C8
:10040800B42104308312A6008E30A5001230A40057
:10041800A40B0C2AA50B0C2AA60B0C2A000008001A
:10042800C0308312A2002208831681058B160800AB
:0E043800142251218B171520BD201F2A0B28DE
:02400E00F4318B
:00000001FF
