:020000040000FA
:020000000B28CB
:10000800DE00030E8312A1000A08A2003E290C2874
:100018008312AC01AD01AE01AF0183018C291C2113
:10002800003083122D02C83003192C0203181D2832
:100038001E282D288516AF011C21A121003083120E
:100048002D02C83003192C02031C2B282C28202829
:10005800982800302D02C83003192C02031C3528BB
:100068003628412803302D02703003192C0203185A
:100078003E283F284128AF01982803302D027030D0
:1000880003192C02031C49284A28582803302D023A
:100098008E3003192C0203185228532858281E3072
:1000A800A8002808AF00982803302D028E300319C5
:1000B8002C02031C602861286F2803302D02AC3005
:1000C80003192C02031869286A286F282D30A80004
:1000D8002808AF00982803302D02AC3003192C02F1
:1000E800031C77287828872803302D02CA30031983
:1000F8002C0203188028812887283730A800280870
:10010800AF00C721982885165530A8002808AF00E9
:100118001C21C721033083122D02CA3003192C0277
:100128000318972898288C2808000730831299000C
:10013800831699018501831285018316051183129F
:1001480005118316851283128516AF01AC01AD0126
:1001580083160512831205121F141F178316051420
:10016800851433309F008B17762104308312A70043
:100178008E30A6001230A500A50BC028A60BC028FB
:10018800A70BC02800000800F620003083122D02BB
:10019800BF3003192C02031CD228D328DE280130D3
:1001A8002D02163003192C020318DB28DC28DE2860
:1001B8008512F52800302D02BF3003192C020318D0
:1001C800E628E728EA288516D921F52801302D02E6
:1001D800163003192C02031CF228F328F52885167B
:1001E800B421080083129F019F179F111F151F1428
:1001F8000D30A400FB30A300A30B0029A40B002999
:10020800052983129F140C1F0A290B2907290D3071
:10021800A400FB30A300A30B0F29A40B0F2914295A
:1002280083121E08AD0083161E088312AC00080056
:1002380083129F019F171F140730A4007D30A3006D
:10024800A30B2429A40B242983129F140C1F2D29E6
:100258002E292A290730A4007D30A300A30B3229B8
:10026800A40B322983121E08AD0083161E088312C0
:10027800AC000800C83081000130A0002008AE079B
:100288000B1D4729482952292F082E0203184D29EA
:100298004E2950290516512905120B1165302E02D9
:1002A800031C572958295929AE0122088A00210E12
:1002B8008300DE0E5E0E0900831205154E30A40081
:1002C800EB30A300A30B6629A40B66298312051142
:1002D8006830A400E430A300A30B7029A40B702994
:1002E8000000080083120515C330A400CD30A30018
:1002F800A30B7C29A40B7C29831205116830A40068
:10030800E430A300A30B8629A40B8629000008006B
:10031800EB2199208B170D308312AB00AF30AA0068
:10032800B630A900A90B9629AA0B9629AB0B9629DA
:100338000000C82013209D290B28762176217621DC
:10034800602104308312A7008E30A6001230A50069
:10035800A50BAC29A60BAC29A70BAC2900000800FB
:10036800602160217621762104308312A7008E3027
:10037800A6001230A500A50BBF29A60BBF29A70B05
:10038800BF29000008006021602160210430831229
:10039800A7008E30A6001230A500A50BD129A60B08
:1003A800D129A70BD12900000800602160217621FE
:1003B80004308312A7008E30A6001230A500A50BCA
:1003C800E329A60BE329A70BE32900000800C030A6
:0E03D8008312A3002308831681058B160800EC
:00000001FF
