:020000040000FA
:020000000B28CB
:10000800DE00030E8312A0000A08A10005290C28AF
:100018008312AA01AB01AC01AD01AE01AF018301AE
:10002800C9297B2183122D08803ADF0080305F02C6
:10003800031D2028C8302C02031823282428392817
:1000480083128516AE01AF017B21DE2183122D08B4
:10005800803ADF0080305F02031D3428C8302C024C
:10006800031C372838282828D42883122D08803ADA
:10007800DF0080305F02031D4328C8302C02031CB8
:1000880046284728592883122D08803ADF008330F4
:100098005F02031D512870302C020318542855287C
:1000A80059288312AE01AF01D42883122D08803A53
:1000B800DF0083305F02031D632870302C02031CAD
:1000C800662867287B2883122D08803ADF00833052
:1000D8005F02031D71288E302C02031874287528BE
:1000E8007B281E308312AE000030AF00D428831264
:1000F8002D08803ADF0083305F02031D85288E308B
:100108002C02031C882889289D2883122D08803AF0
:10011800DF0083305F02031D9328AC302C020318E4
:10012800962897289D282D308312AE000030AF0006
:10013800D42883122D08803ADF0083305F02031D24
:10014800A728AC302C02031CAA28AB28BF2883128E
:100158002D08803ADF0083305F02031DB528CA30BE
:100168002C020318B828B928BF2837308312AE00EC
:100178000030AF00D428831285165530AE00003009
:10018800AF007B2183122D08803ADF0083305F02A5
:10019800031DD028CA302C020318D328D428C52818
:1001A800080007308312990083169901850183128C
:1001B8008501831605118312051183168512831292
:1001C8008516AE01AF01AC01AD018316051283128D
:1001D80005121F141F1783160514851433309F004A
:1001E8008B17B32104308312A6008E30A50012307D
:1001F800A400A40BFD28A50BFD28A60BFD280000D4
:100208000800C83081000130AA070318AB0A003083
:10021800AB070B1D102911291F292F082B02031DBD
:1002280017292E082A0203181A291B291D29051621
:100238001E2905120B1100302B02653003192A0202
:10024800031C272928292A29AA01AB0121088A0089
:10025800200E8300DE0E5E0E090083129F019F1799
:100268009F111F151F140D30A300FB30A200A20B15
:100278003B29A30B3B29402983129F140C1F4529B6
:10028800462942290D30A300FB30A200A20B4A29BF
:10029800A30B4A294F2983121E08AD0083161E0896
:1002A8008312AC000800312183122D08803ADF0048
:1002B80080305F02031D6229BF302C0203186529B4
:1002C80066296929831285167A2983122D08803AAE
:1002D800DF0081305F02031D732916302C02031CD6
:1002E80076297729782966298312851208008312CE
:1002F8009F019F171F140730A3007D30A200A20B97
:100308008329A30B832983129F140C1F8C298D2901
:1003180089290730A3007D30A200A20B9129A30BE5
:10032800912983121E08AD0083161E088312AC00A3
:100338000800831205154E30A300EB30A200A20B73
:10034800A329A30BA329831205116830A300E43065
:10035800A200A20BAD29A30BAD290000080083124F
:100368000515C330A300CD30A200A20BB929A30BF9
:10037800B929831205116830A300E430A200A20B4A
:10038800C329A30BC32900000800F121D5208B172E
:100398000D308312A900AF30A800B630A700A70B14
:1003A800D329A80BD329A90BD3290000572115203D
:1003B800DA290B28B321B321B3219D2104308312FC
:1003C800A6008E30A5001230A400A40BE929A50BC5
:1003D800E929A60BE92900000800C0308312A20011
:0A03E8002208831681058B16080019
:02400E00F4318B
:00000001FF
