:020000000B28CB
:10000800DE00030E8312BE000A08BF006E2A0C2809
:100018008313203084003E30B1228301C12A831229
:10002800D101D0013E283D03031D1E280230D10016
:10003800D001D00A3B08031D5128B601B60A512841
:1000480002303D06031D2C280230D1000230D000BA
:100058003B08031D51280230B600512803303C06E6
:10006800031D39280330D100D0013B08031D512856
:10007800B60151283608C900CA014A08003A0319CE
:10008800462851284908003A03191728013A031944
:100098002428033A03193228512850085107CD0063
:1000A800CE0151084E02031878284D08FF3EC900BA
:1000B800FF3003180030CA004E0849064A04031DE1
:1000C8006C287830C6000030C700C801C80A7128FB
:1000D8007830C6000030C700C80134220130DF0084
:1000E8005F088312CE075528CF0150084F02031826
:1000F80008004D08FF3EC900FF3003180030CA0051
:1001080051084F07CB00CC01CC0D4A084C06031D03
:100118008F2849084B06031D9828C830C6000030B0
:10012800C700C801C80A9D28C830C6000030C700EB
:10013800C80134220130DF005F088312CF07792815
:1001480083120C1F08001E08B00083161E088312B5
:10015800AF00202900303002613003192F02031C40
:10016800C42800303002943003192F020318C42821
:100178003C08031DC1288512C2288516BD01D82850
:1001880000303002613003192F020318CE2885167B
:100198000130D72800303002943003192F02031C95
:1001A800D82885160230BD00A2228312B501B50AEF
:1001B800080000303002C83003192F020318E8285D
:1001C80085160512BC011C2900303002C9300319FC
:1001D8002F02031CFB2803303002A23003192F0220
:1001E8000318FB283D08031DE4288512E528033081
:1001F8003002A33003192F02031C112903303002E7
:10020800CA3003192F02031811293D08031D0E29AE
:1002180085120F2985160516E62803303002CB30E3
:1002280003192F02031C1C29051685160330BC0070
:1002380093228312B50108003508C100C2014208A3
:10024800003A0319282930294108003A0319AE2831
:10025800013A0319DD283029080094293A0839069B
:10026800031908000330C0003A088122203E8400A8
:10027800831300088312B100840A0008B200033017
:10028800C0003A088122223E8400831300088312AA
:10029800B7000530C0000030C1003A08013EC20076
:1002A800003003180130C300AC2183124008BA00A3
:1002B8000515B301B401B801B80ABB01BB0A0800AF
:1002C80032083402031D6A2931083302031C08006E
:1002D800B301B4010230B80005110800003034023F
:1002E800503003193302031C0800B301B401370866
:1002F800031D8029B80108003703031D08000330D7
:10030800B800080003303402E83003193302031C34
:100318000800B301B401BA01B901B801BB01080072
:1003280083123808C600C7014708003A03199D29F7
:10033800AB294608003A03193229013A03196429FE
:10034800033A03197229013A03198629AB290800CF
:100358008312C501C31FB729C209C309C20A0319F9
:10036800C30AC501C50AC11FBE29C009C109C00AFF
:100378000319C10A400841040319EB29C401C40A3E
:10038800C11BD22901300310C00DC10DFF3E031D52
:10039800C7290130DF005F08C407C42941084302A8
:1003A800031DD82940084202031CE0294008C20264
:1003B8004108031CC303C30201300310C10CC00C65
:1003C800FF3E031DE1290130C402031DD22945085F
:1003D8000319F329C209C309C20A0319C30A430846
:1003E800C1004208C0000800073083129900831634
:1003F8009901850183128501831605118312051160
:100408008316851283128516831605128312051624
:100418001F1783160514851433309F000B178B178D
:10042800831205150230C3000430C200BA30C1007F
:10043800C10B1C2AC20B1C2AC30B1C2A00008312E6
:1004480005110630C3001330C200AD30C100C10B26
:100458002B2AC20B2B2AC30B2B2A322A93220800E1
:1004680005308312C0000030C1003908013EC200C7
:10047800003003180130C300AC2183123A0840064B
:100488004104031908000330C00039088122203EC6
:1004980084008312460883138000840A470880007A
:1004A8000330C00039088122223E840083124808A4
:1004B800831380000530C0000030C1003908013EB8
:1004C800C200003003180130C300AC218312400879
:1004D800B90008000B1D7A2A053081000130B307E6
:1004E8000318B40A0030B4070B118B163F088A00B2
:1004F8003E0E8300DE0E5E0E09008312C200C101AB
:10050800421C8A2A4008DF005F08C1070310C00D9B
:100518000310C20C4208031D842A410808008312F4
:100528009F011F149F179F111F150C131030C00037
:10053800C00B9C2A000083129F14080083129F019D
:100548001F149F179F111F110C131030C000C00BF0
:10055800AB2A000083129F14080064008001840AFB
:100568000406031900340406B22AC1308316810038
:10057800831281010B118B160800B922F821A420DF
:0605880013203121C32AFB
:08400000FF3FFF3FFF3FFF3FC0
:02400E00F4318B
:00000001FF
